:020000040800F2
:10000000004000206D6A0008BD6A0008BD6A000853
:10001000BD6A0008BD6A0008BD6A00080000000053
:10002000000000000000000000000000BD6A0008A1
:10003000BD6A000800000000BD6A0008592A0008D7
:10004000BD6A0008BD6A0008BD6A0008BD6A0008F4
:10005000BD6A0008BD6A0008BD6A0008BD6A0008E4
:10006000BD6A0008BD6A0008BD6A0008BD6A0008D4
:10007000BD6A0008BD6A0008BD6A0008BD6A0008C4
:10008000BD6A000800000000BD6A0008BD6A0008E3
:10009000BD6A0008BD6A0008BD6A0008BD6A0008A4
:1000A000A93B00084D3A0008D53B0008BD6A00088E
:1000B000A13A0008CD3A0008F93A0008BD6A0008E4
:1000C000BD6A0008BD6A0008BD6A0008BD6A000874
:1000D000BD6A0008BD6A0008BD6A0008BD6A000864
:1000E000BD6A0008BD6A0008BD6A0008BD6A000854
:1000F0007D3B0008BD6A0008BD6A000800000000E2
:1001000000000000BD6A000800000000BD6A000891
:10011000BD6A000800000000253B0008513B0008B4
:10012000BD6A0008BD6A0008BD6A0008BD6A000813
:10013000BD6A00080000000000000000BD6A000861
:10014000BD6A0008BD6A0008000000000000000051
:10015000000000000000000000000000000000009F
:10016000000000000000000000000000BD6A000860
:10017000BD6A000800000000000000000000000050
:1001800000000000BD6A0008000000000000000040
:10019000000000000000000000000000000000005F
:1001A0000000000000000000BD6A0008BD6A0008F1
:1001B000BD6A0008BD6A0008BD6A000800000000B2
:1001C00000000000BD6A0008000000000000000000
:0801D000BD6A0008BD6A0008C9
:1001D80010B5054C237833B9044B13B10448AFF379
:1001E80000800123237010BD2C00002000000000B7
:1001F800346B000808B5034B1BB103490348AFF340
:10020800008008BD0000000030000020346B0008AA
:1002180053B94AB9002908BF00281CBF4FF0FF3165
:100228004FF0FF3000F074B9ADF1080C6DE904CE61
:1002380000F006F8DDF804E0DDE9022304B07047B9
:100248002DE9F047089D04468E46002B4DD18A4281
:10025800944669D9B2FA82F252B101FA02F3C2F1B4
:10026800200120FA01F10CFA02FC41EA030E944045
:100278004FEA1C48210CBEFBF8F61FFA8CF708FB66
:1002880016E341EA034306FB07F199420AD91CEB3E
:10029800030306F1FF3080F01F81994240F21C8170
:1002A800023E63445B1AA4B2B3FBF8F008FB1033B8
:1002B80044EA034400FB07F7A7420AD91CEB0404ED
:1002C80000F1FF3380F00A81A74240F207816444BD
:1002D800023840EA0640E41B00261DB1D440002342
:1002E800C5E900433146BDE8F0878B4209D9002DA6
:1002F80000F0EF800026C5E9000130463146BDE830
:10030800F087B3FA83F6002E4AD18B4202D3824299
:1003180000F2F980841A61EB030301209E46002D48
:10032800E0D0C5E9004EDDE702B9FFDEB2FA82F29D
:10033800002A40F09280A1EB0C014FEA1C471FFAFB
:100348008CFE0126200CB1FBF7F307FB131140EAE2
:1003580001410EFB03F0884208D91CEB010103F1AF
:10036800FF3802D2884200F2CB804346091AA4B271
:10037800B1FBF7F007FB101144EA01440EFB00FE45
:10038800A64508D91CEB040400F1FF3102D2A645AA
:1003980000F2BB800846A4EB0E0440EA03409CE749
:1003A800C6F12007B34022FA07FC4CEA030C20FAF6
:1003B80007F401FA06F31C43F9404FEA1C4900FA16
:1003C80006F3B1FBF9F8200C1FFA8CFE09FB181193
:1003D80040EA014108FB0EF0884202FA06F20BD906
:1003E8001CEB010108F1FF3A80F08880884240F256
:1003F8008580A8F102086144091AA4B2B1FBF9F09A
:1004080009FB101144EA014100FB0EFE8E4508D994
:100418001CEB010100F1FF346CD28E456AD9023819
:10042800614440EA0840A0FB0294A1EB0E01A142FE
:10043800C846A64656D353D05DB1B3EB080261EB6C
:100448000E0101FA07F722FA06F3F1401F43C5E946
:10045800007100263146BDE8F087C2F12003D8407C
:100468000CFA02FC21FA03F3914001434FEA1C47BE
:100478001FFA8CFEB3FBF7F007FB10360B0C43EAB0
:10048800064300FB0EF69E4204FA02F408D91CEB60
:10049800030300F1FF382FD29E422DD9023863445E
:1004A8009B1B89B2B3FBF7F607FB163341EA0341FE
:1004B80006FB0EF38B4208D91CEB010106F1FF384D
:1004C80016D28B4214D9023E6144C91A46EA004644
:1004D80038E72E46284605E70646E3E61846F8E6D6
:1004E8004B45A9D2B9EB020864EB0C0E0138A3E71F
:1004F8004646EAE7204694E74046D1E7D0467BE700
:10050800023B614432E7304609E76444023842E777
:10051800704700BF2DE9F04FA5B0B0F1A04F83465A
:10052800019117461D4600F0A380524B984202D015
:1005380025B0BDE8F08F504E504B9A6C42F0040243
:100548009A649A6C02F004020292029A9A6C42F03F
:1005580001029A649B6C03F001030393039BE7B1C8
:10056800002423464FF00309A0464FEA031A05EB7F
:10057800031355F80A009B8807930134E4B2CDF8B9
:100588002090CDF8248002F083FE55F80A0007A9D0
:1005980005F070F8BC422346E7D34FF000084FF44B
:1005A8000033C6E901382E9B73640123736186F812
:1005B800383086F8403033654FF48073B383B364C2
:1005C8000823B3614FF48053F363C6E90388C6E98F
:1005D8000B882B4CC6F800B0376286F82480C6F822
:1005E8004C80304603F01AFD04A93046CDE9048852
:1005F800CDF8188004F0E8F90FCC0DF1500CACE8F8
:100608000F000FCCACE80F000FCCACE80F0094E85B
:100618000F008CE80F00FFB1444643464FF07F0BB4
:100628004FF0040904F00F0224A905EB031301EBB2
:100638008202996852F8402CDB680134CDE90C122B
:10064800E4B20CA93046CDE90E3BCDE9109803F091
:1006580037FEBC422346E5D37F21304604F066F9D5
:1006680001993A46304604F0B1F825B0BDE8F08F5C
:10067800044E61E700010050B8000020001002405D
:100688004C6B00084C00002030B50368B3F1A04F54
:1006980083B0044624D0264A934201D003B030BD2B
:1006A800244B1A68002A32D0234D244900232422DF
:1006B800C5E90012C5E902334FF4807180224FF476
:1006C8008063C5E905132A614FF480532022C5E9E8
:1006D8000723284604F09CFB6565AC6203B030BD77
:1006E800144B1A6872B902F1804202F504320121F2
:1006F8001960D36C43F40053D364D36C03F40053F0
:100708000093009B0E4D0F4900230522D0E702F10C
:10071800804202F5043201211960D36C43F400537E
:10072800D364D36C03F400530193019BBCE700BF6F
:100738000001005048000020840100201C000240F5
:10074800240100203000024070B53748374B9AB07A
:100758000321CDE904014FF48051ADF81C102EA1FE
:10076800D1E90001CDE90801314802938021ADF8B3
:100778002C100721CDE90C012E4806930721CDE95D
:1007880010012D4812930721CDE9180124A1D1E9C0
:1007980000014FF090420A920E921C264022CDE9A9
:1007A800140104254FF40064ADF83C201693234946
:1007B800009602AB02224FF0A040ADF80C50ADF805
:1007C8004C50ADF85C40FFF7A5FE0AAB2A461C4921
:1007D8001C480096FFF79EFE1B4B002201204FF499
:1007E800004183F8402083F8342083F828201A77C2
:1007F8001871187419601C81D9609C829A611A84D6
:100808005A629A851A631A87DA63A3F844201AB0E1
:1008180070BD00BFAFF300800008302E0300000059
:1008280000106032070000000080F03E000400481D
:100838001000C0100800900C0040C03AE4010020ED
:10084800E801002000010050F0010020394B3A4A2D
:100858001868D968DFF8E8C02DE9F041374C1788E7
:100868005288B4F802805E6A1D6BB4F806E007444B
:10087800114420889A691F6002449CF80000D960DE
:1008880046440130B4F80480DC6B9A61C0B2454438
:1008980074440F285E621D63DC6346D90909303150
:1008A8000020B7F5803F4FEA121202F130028CF8AF
:1008B80000004FEA171028BF40F6FF70B1F5805FBF
:1008C80028BF40F6FF71B2F5805F28BF40F6FF727F
:1008D8001A84B6F5803F4FF000029A614FEA16126B
:1008E80028BF40F6FF729A85B5F5803F4FF00002A9
:1008F8005A624FEA151228BF40F6FF721A87B4F5FC
:10090800803F4FF000021A634FEA141228BF40F6E6
:10091800FF721881998200200021A3F84420002248
:100928001860D960DA63BDE8F0818CF80000BDE892
:10093800F08100BFF0010020E4010020E801002060
:10094800380200201E4B1F491F4810B4C3F8061078
:100958001E49C3F80E101E491E4CC3F80A00C3F8FE
:10096800161000F1E4601C49C3F8024000F225703B
:100978001A4CC3F81E1040F6FF714FF00822C3F856
:100988001240C3F81A00164CC3F8261000204FF482
:100998000061C3F82240C3F82A005DF8044BC3F88D
:1009A8003E20C3F84220C3F84620C3F84A20C3F8C3
:1009B8004E20C3F85220C3F85620A3F85A107047A7
:1009C80058020020FD01E702CD03B2049305790621
:1009D80025090E0A44000601BE0CAC0D5A073B0857
:1009E800960E660F10B4324C234604F1260033F8F5
:1009F800022F114633F8022F8A4254D99842F8D16F
:100A0800238DB3F57A7F4ED8638DB3F57A7F4AD8B4
:100A1800A38DB3F57A7F46D894F82E30012B42D8AF
:100A280094F82F30012B3ED894F83030012B3AD867
:100A380094F83130022B36D894F83230032B32D860
:100A480094F83530012B2ED894F83330022B2AD85D
:100A580094F83430032B26D8A36B164A643B934290
:100A680021D894F83C30012B1DD8E38F013B9BB271
:100A7800B3F5805F17D2B4F84230013B9BB2B3F5AF
:100A8800805F10D2B4F84430013B9BB2B3F5805F6D
:100A980009D2B4F84600013880B2B0F5805F2CBFA7
:100AA8000020012000E000205DF8044B704700BFE3
:100AB800580200209CFFFF07002108462DE9F84F47
:100AC80001F098FB0021012001F094FB664A1369AC
:100AD8005C04FCD5644A13699804FCD5642003F0CF
:100AE80079FA0221002001F085FB0221012001F0A2
:100AF80081FB642003F06EFA0021084601F07AFBBE
:100B08000021012001F076FB642003F063FA022142
:100B1800002001F06FFB0221012001F06BFB642033
:100B280003F058FA0021084601F064FB0021012077
:100B380001F060FB4C4A13695904FCD54A4A136911
:100B48009B04FCD5494D484F002417E0A3F2D77207
:100B58005F2A00F28780A3F2EC73282B8CBF062152
:100B68000721012001F046FB3A6912F4005257D0E0
:100B78003A6912F480422ED0032C4FD004F1020AB5
:100B88000F2003F027FA0F2035F81AB003F022FAE5
:100B980035F81A600F2003F01DFA35F81A800F2077
:100BA80003F018FA04F1140935F81A20304BB3444D
:100BB800D844904433F81930C8F38D0843449BB2A5
:100BC800A3F2A572C32AC1D90421CAE7013291B29E
:100BD800642912B211D03B6913F4804318BF002274
:100BE800F4D03B6913F4804318BF0022F3D1EDE73A
:100BF80001339AB2642A1BB20CD03A6912F48042CB
:100C080008BF1346F4D13A6912F4804208BF13466C
:100C1800F3D0EDE70134E4B2032CAFD1BDE8F88F8F
:100C2800134BC8F5006823F819803B6913F4005387
:100C380018BF0022F9D1013291B2642912B2F4D15D
:100C48003A6912F4005208BF1346F9D001339AB238
:100C5800642A1BB28CD03A6912F4005208BF1346BA
:100C6800EED0F3E705217CE700080048E801002002
:100C7800580200202DE9F04F002108468DB001F000
:100C8800B9FA0421012001F0B5FA574A0023146982
:100C980014F4005418BF0023F9D101339BB2642B1C
:100CA800F5D1514922460B6913F4005308BF1A467F
:100CB800F9D0013292B2642AF5D10021012001F065
:100CC80099FA0DF10603494D474F019302E00134AB
:100CD800132C70D00021012001F08CFA0F2003F0B2
:100CE80079F90F20B5F8069003F074F9B5F806A065
:100CF8000F2003F06FF9B5F806800F2003F06AF9AA
:100D0800D144EB88C1449944019BC9F38D0923F868
:100D1800029F122C01935FFA84F8D8D00721012092
:100D280001F068FAB8F1000F5AD0B8F1110F0CBFF2
:100D38004FF0500A4FF0A00A142003F04BF90F208F
:100D480003F048F90F20B5F806B003F043F9EE8830
:100D58000F2003F03FF9B5F806800F2003F03AF9A9
:100D6800EA880BEB060343441344C3F38D03A3EB58
:100D780009035345E3DB0221012001F03BFA00227D
:100D88003B6913F4005318BF0022F9D1013292B223
:100D9800642AF5D13A6912F4005208BF1346F9D013
:100DA80001339BB2642BF5D100210120013401F0FD
:100DB80021FA132C8ED10E4DBDF8081002AA284630
:100DC8000BAC0B4632F8021F0B445B10944220F820
:100DD800023FF6D140F6FF73EB840DB0BDE8F08F0B
:100DE8004FF0500AA8E700BF00080048E8010020BB
:100DF8005802002070B5334D334C0021012001F01A
:100E0800F9F92B695E041AD521884FF4006001F0C6
:100E1800D1F8092102F008F8A1884FF4006001F028
:100E2800C9F80A2102F000F861884FF4006001F067
:100E3800C1F80B2101F0F8FF2B695804E4D4234EC4
:100E48002188A2886388F1876420A6F84020A6F844
:100E5800423003F0BFF81B4D2B695904FCD56420C0
:100E680003F0B8F80021084601F0C4F92B695A04C8
:100E78001BD5144D21884FF4006001F09BF8062122
:100E880001F0D2FFA1884FF4006001F093F8072128
:100E980001F0CAFF61884FF4006001F08BF8082167
:100EA80001F0C2FF2B695B04E4D42188A28863881F
:100EB800A6F84410A6F84620A6F84830BDE87040C9
:100EC80001F01CBA00080048E80100205802002080
:100ED80008B5FFF787FD78B31F4B1B699B042AD41D
:100EE8001E4A13886FF4E16C63449BB2B3F5C77F65
:100EF80021D853886FF4E16003449BB2B3F5C77FF0
:100F080019D893886FF4E1610B449BB2B3F5C77F9E
:100F180011D8D388452B14D96FF4E1629A18B2F529
:100F2800C77F12D9B3F57A6F05D9FFF7C5FDBDE8BC
:100F3800084001F011B808BD01F026F801F00CF8DE
:100F4800CAE7FFF797FEFFF7B7FDFFF753FFBDE8C6
:100F5800084001F001B800BF00080048E80100207F
:100F68004C4A4D4B12691988C2F3803242EA410259
:100F780092B24FF6FE718A4230B41A8061D0012ACB
:100F88005BD0444A98881269C2F3403242EA400270
:100F980092B24FF6FE718A429A8056D0012A5CD0EE
:100FA8003E4A1889126982F40052C2F3403242EA7A
:100FB800400292B24FF6FE718A421A8155D0012A38
:100FC8004FD04FF0904298891269D24302F0010243
:100FD80042EA400292B24FF6FE718A429A8138D0B4
:100FE800012A02D14FF47F42DA812A4A188A12690B
:100FF80082F40042C2F3C03242EA400292B24FF693
:10100800FE718A421A8239D0012A02D14FF47F42F6
:101018005A82224A988A1269C2F3400242EA40027E
:1010280092B24FF6FE718A429A8222D0012A04BFF8
:101038004FF47F42DA8230BC70474FF47F425A80C7
:101048009FE740F201125A809BE740F20112DA80D2
:10105800A6E740F20112DA81C7E74FF47F42DA804F
:101068009EE74FF47F425A81ABE740F201125A8162
:10107800A7E740F20112DA8230BC70470849094DEF
:1010880009480C682C6040F201125A8200220A605A
:101098000270BEE7000800483C0200200004004837
:1010A800A80A0020CC040020D404002000B5104B6E
:1010B80083B04FF6FF724FF0010CC3E90022C3E979
:1010C8000222C3E90422694641F28832002307203C
:1010D800ADF800C0ADF80220ADF8043002F0FEFB18
:1010E8000449072002F0E0FB03B05DF804FB00BFF1
:1010F8003C020020690F00082DE9F04100228AB067
:10110800CDE906222C4B0892DA6C2C4C2C4F42F07D
:101118000102DA64DA6C02F001020192019ADA6CD7
:1011280042F00202DA64DA6C02F002020292029AD7
:10113800DA6C42F00402DA64DB6C03F00403039314
:1011480004A94FF480524FF090400123CDE90423C5
:101158000125039B04F08EFA4FF48042002304A972
:101168002046CDE904234FF40056069504F082FA90
:1011780004A920464FF00208049604F07BFA04A95B
:101188003846CDF8108004F075FA384604A9CDF831
:101198001880049604F06EFA4FF4004304A9204620
:1011A800049304F067FA04A94FF09040049504F002
:1011B80061FA0AB0BDE8F08100100240000800485A
:1011C80000040048012970B52DD0032903D090F9F7
:1011D8000430184670BD294B90F90550196802690A
:1011E8006B1E8A425BB2F4D98269090A4FEA122C53
:1011F80001FB0CFCBCF1200F4FF0000138BF4FF091
:10120800200C0A4647F6F876CCB2AC42624401F1AB
:101218000101DEDC448DA2429CBF03F1FF335BB2C7
:10122800B242F1D9D5E7154AC3681268934221D969
:10123800436990F90550120A4FEA132E02FB0EFE7D
:101248000021BEF1200F38BF4FF0200E0A460B4692
:1012580047F6F8765FFA81FCAC45724401F101016A
:10126800B7DCB0F82AC05C1C944528BF63B2B24210
:10127800F0D9AEE70023184670BD00BF7004002007
:10128800014B01221A60704754020020014B64226E
:101298001A60704754020020064A13681BB10133D4
:1012A800632B02D8136000207047002313600120CD
:1012B800704700BF54020020F8B590F84930FBB9D8
:1012C80086680446E6B190F83020CAB14E4A80F8E4
:1012D80039301378ABB14D4B1D6894F90570012F67
:1012E80012DD94F82230002B6AD1AE42484B2771A8
:1012F800C0F086801A682B461544AE42FBD22360A4
:10130800F8BD444B1D68E8E7AE4202D2AD1BAE42C1
:10131800FCD394F822302560002BF1D08035AE4202
:10132800E26838BFAD1BAA4230D2AD1A0026334658
:1013380022692803290DFEF76BFF40F6FE7380B281
:1013480098424ED932466664032384F82430A38D2C
:10135800D21A01211203DB047F20E263A362042274
:1013680080238F42E07784F82320236484F8481090
:1013780084F83210C4DD94F82230002BC0D094F8E1
:1013880024102046FFF71EFF2071F8BD0023280314
:10139800290DFEF73DFF40F6FF7380B2984228BF43
:1013A8001846C304636494F8201000B200F03CFDB2
:1013B800012380B294F9057084F824300246C6E708
:1013C80094F823102046FFF7FDFE114B20711B688F
:1013D800AB4202D8ED1AAB42FCD903FB005525609D
:1013E8009CE7C0F57F600F30C30494F82110636454
:1013F80000B200F019FD80B294F905700246A3E727
:101408001B68EB1A7BE700BFD4040020B40A002055
:1014180070040020A80A002038B590F8493033BB82
:101428008368C268994288BFC91A8A4204461FD293
:10143800891A002502692B460803090DFEF7E8FE04
:1014480040F6FE7380B298422AD92A46656403237F
:1014580084F82430A38DD21A12037F20DB040421E0
:10146800E2638022E077A36284F82310226438BD07
:1014780000230803090DFEF7CBFE40F6FF7380B288
:10148800984228BF1846C304636494F8201000B239
:1014980000F0CAFC012380B284F824300246D9E760
:1014A800C0F57F600F30C30494F82110636400B264
:1014B80000F0BAFC80B20246C9E700BF30B5A74BBE
:1014C8001B6883B0044693B1836883B190F83120D8
:1014D800002A40F04D8194F822302BB394F8233041
:1014E800013B032B47D8DFE803F0B3934D2A94F868
:1014F8003120002384F8223084F84830A2B1A28D2C
:1015080084F831300F2A40F2BA8040F201120023E9
:101518006284A36202F0DCFB02F0BEFB228CA4F81A
:101528001D200023A371D6E702F0B6FB02F024FCCD
:1015380002F0CEFB002084F8480003B030BDA36A57
:10154800E26B1344B3F5002FA36202D3002A40F0E4
:10155800E88000230121A362A3852164002A40F3C7
:10156800D28002F099FB02F0B3FB236C013B002B05
:10157800236440F3BC80E17FB4F92C0000F054FCF4
:1015880080B2DAE7A36AA169754A5B1AA3F500215C
:10159800D80C9142A362A08540F2A7800023A362E1
:1015A800A385012502F05EFB02F0ACFBA38DB3F529
:1015B800006F80F0978002F0DFFBA17FB4F92C0068
:1015C800E17700F031FC80B2002DB6D0019002F036
:1015D8007FFB02F061FB02F0CFFB624B228C1B7891
:1015E8000198A4F81D2043B994F84A302BB9A3797F
:1015F80003F0FF02002B00F09E8094F83030002B9F
:1016080041D00023A37140F20113638403B030BDBD
:1016180002F042FB02F076FB02F092FB94F84B30AA
:1016280040F6FF70A0852BB14F4B93F83130012B5A
:1016380000F08580E17F40F6FF7000F0F5FB94F83C
:101648002130A37780B2032584F8235003B030BD3E
:10165800A36A626945491344DA0C8B42A362A285E6
:101668001DD994F84B30A16240F6FF72A285002B79
:101678004ED1637FE377032502F062FB17E0002376
:1016880084F8483041E794F83830012284F8322051
:101698000BB123686363002384F83830B3E7637FB2
:1016A800E377B2F5006F56D202F066FB002502F030
:1016B800F3FA02F00DFBE17FB4F92C0000F0B4FB63
:1016C80080B2002D3FF439AF032D03D0012D05D092
:1016D800022DB9D194F82130A377B5E794F82030DA
:1016E8006377B1E702F02CFB67E700255AE794F827
:1016F8004830626C94F82450A262002BDBD000239F
:1017080084F84830D7E702F0ADFA02F0FBFA2CE78C
:10171800154B93F83130012B637FE377ABD102256A
:10172800AAE712498B4213D940F6FF700123A16240
:10173800A085236412E7628484F84820FDE60B4AFA
:10174800E17FA26284F8383000F06EFB80B2F4E6E4
:10175800DB0CA38502E700258EE700BF700400209C
:101768000000F07F74040020580200200000F87F79
:10177800818D00220F2980F8312090F822207FF6F1
:101788007EAF002A3FF4C1AE90F84820002A3FF40B
:10179800BCAE7F2B7FF6B9AE012A04BF022380F8C6
:1017A80048308021FFF738FEB8E600BF70B5304CEE
:1017B800304D2368013323602B6801332B6002F01E
:1017C8001BFA2046FFF77AFE04462846FFF776FE06
:1017D800294A2A4B12681D681044A318284A05FB99
:1017E80003F305FB00F0002B1568B8BF03F6FF7381
:1017F80005EB23340028B8BF00F6FF7084F30C060D
:1018080005EB2035B1B2002002F00EFB25EAE575A4
:1018180040F6FF739D42A8BF1D46ADB22946012080
:1018280002F002FBB4F5006F10DA0221002000F08C
:101838004FFDC6F50060400080B2002100F048FD71
:1018480028460521BDE8704000F042BDA6F50060BD
:10185800400080B2022100F03BFD0021084600F064
:1018680037FD28460521BDE8704000F031BD00BFB6
:101878008004002020040020D8040020E004002078
:10188800E8040020436B8268934290F8302084BFBC
:10189800002343639AB90A4A127882B102689A42CD
:1018A8000DD390F8383053B990F832303BB190F8F6
:1018B8004B3023B90122A0F8312080F83830704726
:1018C8007404002090F830301BB9012380F83230BE
:1018D80070470A4B82791B78134309D090F8393046
:1018E8001BB9012280F83120837143790371704755
:1018F80090F84A30002BF8D0F0E700BF74040020BD
:1019080010B4314C2178034611B990F84A2072B1CD
:1019180093F90520012A2DDD93F8221091B993F946
:1019280004108A4218DD00205DF8044B7047827964
:10193800002AEDD190F82220002AF4D090F9052051
:10194800012A17DD93F839100029E8D119790131F6
:1019580049B28A421971E6DC00221A6093F83020F5
:10196800DAB9012283F8322000221A7101205DF8C9
:10197800044B704793F8302042B193F839202AB9C4
:101988009A790A4316D0012283F8312000229A71ED
:1019980010465DF8044B1A607047997922780A431B
:1019A8000DD093F83920002ADED1012183F83110B7
:1019B8009A71D9E793F84A20002AE7D0E3E793F829
:1019C8004A20002AD0D0ECE77404002038B590F8FB
:1019D8002230044653B990F8303053B901230268D5
:1019E80080F82230A0F83130426338BD4379037162
:1019F80038BD224B1B78012280F822200BB3204BE4
:101A0800196894F90550012D2DDDA268914231D84D
:101A18001C4800680B46194603449342FBD9E26808
:101A28008A4211D300230803090DFEF7F1FB94F84D
:101A380020306377C004012384F823302571A06225
:101A480038BD114B1968DCE7891A0023080322699D
:101A5800090DFEF7DDFB94F82130A377C0F580501F
:101A6800C0040323E8E7A3689942D8D9C91A994260
:101A7800FCD8D4E7034B1B68C91AD0E7D40400206C
:101A8800B40A002070040020A80A002090F8493009
:101A98003BB9C0E90333C0E905334384036083607D
:101AA80083627047074A002302E00133132B06D0F4
:101AB80032F8021F8142F8D3034AD05670476FF0BC
:101AC8000F007047580200208C6B000890F84930CE
:101AD80073BB90F90530012B10B42ADC5A1CBCBF2B
:101AE8005B42B1FBF3F1B1F1807F027F4B4C816027
:101AF80022D394F82E400B0A02FB03F314B37E3A68
:101B0800032A54D9322B38BF3223A1F1320293422F
:101B180028BF13464FF00042C91AB2FBF1F4B2FBDA
:101B2800F3F2C0E90542C0E903135DF8044B7047BE
:101B3800704703FB01F1D6E794F82E4002FB01F34E
:101B48001B0A2CBBEAB3012A4ED0022A54D0192A08
:101B580021D9FF2A58D0C82A25D9D243A1F1140483
:101B6800D2B212FB02F2A34228BF2346B4EB420FC3
:101B78004FEA420CCED3A1EB0C0C634538BF634649
:101B88004FF00042C91AB2FBF1F4B2FBF3F2C8E716
:101B98001829D7D9B3E712FB02F2322B4FEA4202D7
:101BA80038BF3223B3E7A2F17E03032B11D84FF0DD
:101BB80000444B08A1EB5101B4FBF3F2B4FBF1F480
:101BC800AFE71E394FF00044154AB4FBF1F41E2369
:101BD800A7E70B0A02FB03F3C91A4FF00042B2FB56
:101BE800F1F4B2FBF3F29CE728394FF000440D4AB8
:101BF800B4FBF1F4282394E732394FF000440A4A41
:101C0800B4FBF1F432238CE7A1F114034FF0004246
:101C1800064CB2FBF3F2142183E700BF5802002000
:101C28004444440433333303285C8F0266666606F3
:101C3800012806DC431CBABF4042B1FBF0F008465D
:101C4800704701FB00F0704790F849302BBB816862
:101C5800027FB1F1807F10B4494C1FD394F82E4015
:101C68000B0A02FB03F3FCB17E3A032A51D9322B4B
:101C780038BF3223A1F13202934228BF13464FF0F6
:101C88000042C91AB2FBF1F4B2FBF3F2C0E9054213
:101C9800C0E903135DF8044B7047704794F82E4071
:101CA80002FB01F31B0A2CBBEAB3012A4ED0022A1D
:101CB80054D0192A21D9FF2A58D0C82A25D9D24365
:101CC800A1F11404D2B212FB02F2A34228BF2346A8
:101CD800B4EB420F4FEA420CD1D3A1EB0C0C634595
:101CE80038BF63464FF00042C91AB2FBF1F4B2FBA9
:101CF800F3F2CBE71829D7D9B6E712FB02F2322B59
:101D08004FEA420238BF3223B6E7A2F17E03032B23
:101D180011D84FF000444B08A1EB5101B4FBF3F28A
:101D2800B4FBF1F4B2E71E394FF00044154AB4FB96
:101D3800F1F41E23AAE70B0A02FB03F3C91A4FF0BA
:101D48000042B2FBF1F4B2FBF3F29FE728394FF0FF
:101D580000440D4AB4FBF1F4282397E732394FF0D9
:101D680000440A4AB4FBF1F432238FE7A1F11403CB
:101D78004FF00042064CB2FBF3F2142186E700BF95
:101D8800580200204444440433333303285C8F0250
:101D98006666660610B5224CA4FB004C4FEA1C2C64
:101DA800CCEB0C1E0CEB8E0E0EEB0E1ECEEB8E1E2D
:101DB8001C4C00EB8E0080B2A4FB004010F4007FA6
:101DC8004FEA900018BF7F20C0B2BCF1030F1FD8A4
:101DD800DFE80CF012170B02A0F180040C706FEA18
:101DE8004001C0431170187010BD40007F24C0B27C
:101DF8000C701070187010BD00240C7010701C70DE
:101E080010BD0870C0F17F0400211470197010BD56
:101E1800FF240C70C0F17F0000211170187010BDF4
:101E2800FF04EC4FABAAAAAA40F6FF739842A1F1AF
:101E38007F02A8BF1846012A1FD97E2910D8A3EB14
:101E4800000C0E4A32F81CC0A3EB0C03C1F17F0250
:101E58009BB202FB03F310FB013040F3CF10704735
:101E6800064B33F8103081F08001C1F17F0203FB8B
:101E780001F100FB021040F3CF107047A06B00087F
:101E880010B500F1784086B0C30A0122002401A9E8
:101E980002A8CDE90134CDE9043203F0BFF9019B72
:101EA800013318BF012006B010BD00BF03F04AB9C6
:101EB80003F05CB9F8B541EA0203074613F00300E2
:101EC80002D001263046F8BD032AFAD90C4661072C
:101ED8004FEA920533D4012D0FD1002662073B68E3
:101EE8004BBF043C1A464FF0FF324FF0FF332146F8
:101EF800002003F07DF83046F8BD14F007003B469B
:101F08004FF000062146A5F1020507F1080714D194
:101F1800D3E9002303F06CF803463343DEB20834F8
:101F2800002DCFD0012DD9D014F007003B46214613
:101F3800A5F1020507F10807EAD00123EDE7211F03
:101F480057F8043B4FF0FF3203F052F8013D04F11B
:101F58000404C0D12E46B5E710B5FFF7A7FF08481F
:101F6800FFF78EFF38B9074805494CF20203602293
:101F78000380FFF79FFF0446FFF79AFF204610BD36
:101F880000F001085802002008B5FEF7DBFC084BFA
:101F98004FF0000C4FF0011001224FF4FA51C3F832
:101FA8002EC0C3F8320083F83C20996308BD00BFF7
:101FB8005802002001FB00F0C01240F6FF7398425F
:101FC800A8BF184680B270472DE9F04F544CB4F8BA
:101FD8004850B4F83EB0B4F84480B4F856C0B4F8E9
:101FE80040A0B4F84670B4F84290B4F854E085B014
:101FF80003FB05F5ED120095B4F84A5001FB05F511
:10200800EE12B4F84C50019602FB05F5ED1202955C
:10201800B4F84E5003FB05F5EE120396B4F8506081
:10202800B4F8525001FB0BFB01FB08F801FB06F664
:1020380001FB0CFCB4F858104FEAEB2B02FB0AFA30
:1020480002FB07F702FB05F501FB02F2B4F85A1090
:1020580040F6FF744FEAEA2AA34503FB09F94FEA61
:10206800E929A8BFA346A2454FEAE828A8BFA24687
:10207800A1454FEAE727A8BFA146A045A8BFA046AB
:1020880003FB0EFEA74201FB03F30099A0F800B082
:10209800A8BF27460781A1420F460199A0F802A0D0
:1020A800A8BF27464781A1420F460299A0F804908D
:1020B800A8BF27468781A1420F460399A0F806804A
:1020C8004FEAE626A8BF2746A1424FEAE525A8BF62
:1020D8002146A6424FEAEE2EA8BF2646A5424FEA61
:1020E800EC2CA8BF2546A6454FEAE222A8BFA64683
:1020F800A4454FEAE323A8BFA446A242A8BF2246AC
:10210800A342A8BF2346C781018246828582A0F8E0
:1021180016E0A0F818C04283838305B0BDE8F08FAD
:102128005802002010B5324C00231A4619462046A2
:10213800FFF74AFF4FF480631A46194604F11E0060
:10214800FFF742FF4FF400631A46194604F13C00BA
:10215800FFF73AFF40F6FF731A46194604F15A0092
:10216800FFF732FF00231A4604F1780040F6FF71AA
:10217800FFF72AFF04F1960000234FF4167240F689
:10218800FF71FFF721FF04F1B40000234FF416623A
:102198004FF46161FFF718FF0023194604F1D200DC
:1021A80040F6FF72FFF710FF4FF461631A4604F11F
:1021B800F0000021FFF708FF0022114604F58770A0
:1021C80040F6FF73FFF700FF0022114604F59670F2
:1021D8004FF48063FFF7F8FE04F5A57040F6FF732F
:1021E800BDE8104000224FF46161FFF7EDBE00BF6B
:1021F800B802002038B548B1012804462DD002287D
:1022080018D003284FD004283AD038BD2F4BC1EB43
:10221800011103EB410433F81100092100F004FE19
:10222800A0880B2100F000FE60880A21BDE8384034
:1022380000F0FABD254CC1EB011104EB41040D215E
:10224800A08900F0F1FD208A0F2100F0EDFDE08962
:102258000E21BDE8384000F0E7BD1C4CC1EB011170
:1022680004EB41040621E08800F0DEFD60890821C6
:1022780000F0DAFD20890721BDE8384000F0D4BD20
:10228800124DC1EB011105EB41050321288B00F02C
:10229800CBFDA88B052100F0C7FD688B2146BDE862
:1022A800384000F0C1BD094CC1EB011104EB4104F9
:1022B8000021608A00F0B8FDE08A022100F0B4FD38
:1022C800A08A0121BDE8384000F0AEBDB802002068
:1022D80000F0AABD0B4640F6FE729342014602D9B1
:1022E800002000F0A1BDC3F57F63034A0F3332F825
:1022F800130000F099BD00BFA06B000808B50621C7
:10230800002000F091FD0721002000F08DFD08213C
:10231800002000F089FD0921002000F085FD0A2138
:10232800002000F081FD0B21002000F07DFD0D2133
:10233800002000F079FD0E21002000F075FD0F212E
:10234800002000F071FD0021084600F06DFD01211C
:10235800002000F069FD0221002000F065FD032146
:10236800002000F061FD0421002000F05DFD052142
:10237800002000F059FD044B0C21B3F8FE0FBDE816
:10238800084000F051BD00BFA07B00082DE980483F
:1023980085B000F0CDFEA74BA74A1B68A2FB03231C
:1023A8009B09013BB3F1807F0AD24FF0E022A3489A
:1023B8005361F0240021072380F8234091611361C1
:1023C8009F4EA04F01F076FA304600F0F1FC3846F7
:1023D80000F0EEFCFEF790FE01F05EFC01F092FCCE
:1023E80001F0CAFC01F002FDFEF7AEF900F06EFE46
:1023F800FFF784FFFEF75AFE322001F0EBFDFFF7EE
:1024080091FEFEF765FDFFF78DFE45F2F05001F0F5
:102418001FFD8D4801F058FD00F01CFB8B4B93F815
:102428003C40002C00F0E882894B029301241C7088
:10243800884B01931D4605212046FFF7DBFE86F8F1
:10244800224087F822402C70804B9B6B002B40F079
:10245800CC82DFF82C82804B804DDFF828B2DFF881
:10246800E0A1DFF8E09100241C606AE03268B368FC
:10247800B2EB530F80F0EC81002B00F0B781484697
:10248800FFF700FABB681BB13A689342C0F0E781D6
:10249800734B1B68C3B173490A68934200F2AD815C
:1024A800019B0C601B786BB196F905306E4A012BC5
:1024B80097F90530D8BF3460012B4FF00103D8BF1E
:1024C8003C60137001F076FC674B1B78002B40F0E2
:1024D800DB80664B1B68002B40F0D680D8F80030B4
:1024E8002BB35A4890F82F200ABB019A127802F0B1
:1024F800FF01E2B95E4A1268B2EB430F17D35C4A98
:10250800574B1160196821B190F83230032B00F055
:1025180081825046FFF7BAFA4846FFF7B7FAC8F87B
:10252800004000210846FFF765FE8BF80040514B3C
:10253800187800F0A7FA4F4B1C7001F07DFB00F0F3
:1025480047FFAB78012B00F0D98095F903300133B0
:1025580000F0F68095F90B30012B00F0FD80013377
:1025680004BFEC72A6F84A4095F90F30012B00F031
:102578000F81013308D1354BEC7393F83330002BBE
:1025880040F05B81A7F84A3095F90730012B00F03D
:102598001F81013304D1384A137823B11470EC71C8
:1025A800364B1B788BB1354B029A1C701378EC7143
:1025B800002B40F01581012005211070FFF71AFE4D
:1025C800D8F80010002940F0928195F91730012BB6
:1025D80000F0048101330ED197F84910EC75C1F170
:1025E8000101C9B2002987F849104FF0020018BF4D
:1025F8000421FFF7FFFD5046FFF744F99BF8003030
:10260800002B7FF433AFB368002B00F0EF80326803
:102618009342BFF434AF32685046D31A3360FFF7A1
:1026280051F902210020FFF7E5FD01238BF8003066
:1026380025E700BF28000020D34D621000ED00E020
:102648008004002020040020B5170008580200204C
:1026580074040020D40400207C0400203C020020E4
:10266800D0040020B40A00207B040020CC04002001
:10267800A80A00207A0400206C04002079040020B5
:102688007004002078040020B2490B686BB1D8F8B8
:1026980000200B68C8F800303AB19A4234BF9B1A40
:1026A800D31AB3EBD20F00F24E81AA4B1C60AA4B8F
:1026B8001C70019B1B7803F0FF020BB9A74B1A6033
:1026C80096F90530012B40F3A98097F90530D8F821
:1026D8000010012B5046D8BF3C60FFF7F7F9484679
:1026E800D8F80010FFF7F2F95046FFF709F900286B
:1026F80040F08C804846FFF703F918E795F9032066
:102708009749012A096800F0B18044F62062914295
:1027180040F21081019B1B78002B40F04A81914BBD
:102728001C608E4B00211C608F4B08461C60FFF715
:1027380061FD95F903308BF8004001337FF40AAF4F
:1027480000210846FFF756FD95F90B308BF800403D
:10275800012BEC707FF403AF844AEC7292F83120BD
:10276800022A00F0AB80F26886F83040B2F5805F4C
:1027780088BF86F84830A6F831303368736395F916
:102788000F304FF48071012BA6F84A107FF4F1AE98
:102798007649EC7391F83320002A48D191F8341027
:1027A800022900F0ED8087F83020FA68A7F8313068
:1027B800B2F5805F88BF87F848303B687B6395F93E
:1027C80007304FF48071012BA7F84A107FF4E1AE6F
:1027D800674B684A9B8DEC711380E1E6EC750AE75C
:1027E800002101201470FFF705FDEEE600210846E0
:1027F800FFF700FD8BF8004041E65B4A1268B2EB38
:10280800530FFFF461AE01F0F1FA5DE602210020FA
:10281800FFF7F0FC01238BF800306BE70221002062
:10282800FFF7E8FC012334608BF800304DE7012AFC
:102838007FF4AAAE504B1A70A6E6012B7FF4A4AE23
:102848004A4B93F83530012B04BF4B4A13709BE673
:1028580000210846FFF7CEFC8BF80040D3E63A6823
:102868004846D31A3B60FFF72DF811E6019BEC7040
:102878001A703A4B1B68002B59D0994234BF5A1A28
:10288800CA1AB2EB530F4FEA530050D200EB510172
:10289800334BC8F800101C60324B1960324B50465D
:1028A8001C60FFF713F9D8F800104846FFF70EF937
:1028B800FEF7ECFC314A0123137046E686F8303007
:1028C800A6F84A30B371029B1B7813B996F82230E8
:1028D8003BB9F36872793271102B84BF012386F8F3
:1028E8004830338C86F83940A6F81D303CE650460F
:1028F800FFF7ECF8D8F800104846FFF7E7F850461D
:10290800FFF764F84846FFF761F896F82330012B83
:102918005AD0032B7FF459AEB36AB3F1804F61D21A
:1029280001F02AFA01F09EF901F0ECF94DE60B4BA3
:102938001960ADE7022100200393FFF75BFC039BBE
:102948008BF8003001E6FEF7A1FC0C4A0123137056
:10295800ABE600BFCC0400207B0400207C040020F0
:10296800B00A0020D0040020B40A00205802002039
:10297800F001002076040020790400207A04002069
:1029880087F83030A7F84A30BB71029B1B7813B91F
:1029980097F822303BB9FB687A793A71102B84BFDB
:1029A800012387F848303B8C87F83940A7F81D3059
:1029B800EAE55046FFF76AF84846FFF767F8019BD3
:1029C800C8F800401C70AAE6B36AB3F1804F06D37A
:1029D80001F0B6F901F060F901F07AF9F5E501F0D6
:1029E800CBF9F7E701F0ACF99CE7DFF86080B3605A
:1029F800BB60C8F800302EE5124B02932146012037
:102A08001C70FFF7F7FB104B86F8224087F822402E
:102A1800019319E5019AC8F8001001235046137074
:102A2800FFF754F8D8F800104846FFF74FF897F822
:102A38004920012386F83130002A7FF472AD87F8E7
:102A480031306EE574040020D404002070040020A6
:102A580001F0AEBA30B4074A074C084808490023C9
:102A68004FF4006582F849302560036030BC0B6084
:102A7800704700BF20040020E8040020D80400208C
:102A8800E0040020A54970B90B8801339BB2502B94
:102A98000B8008D8A24A138801339BB2042B00F29A
:102AA8006B81138070472DE9F0419E4A9E4C158D2D
:102AB800238C00202B44088040F6320519B2A94225
:102AC8009BB200F3D28040F2CD75A942DCBFA3F2DD
:102AD800CE7318B2A18D538D944D0B44286098B2D3
:102AE80040F632051BB2AB4200F33A8140F2CD7595
:102AF800AB42DABFA0F2CE731BB200238C488079B8
:102B080048B18C480088814234BF411A091A89B2F9
:102B1800282900F2AE8088490978002940F0AC8065
:102B28008649A3F500630B602389C3F5016103316E
:102B380089B2262988BFC3F50060918D238F804A0A
:102B48008CBF80B200200B44184400B2138880F375
:102B58000C0080B298428CBFC31A1B1A9BB2102B70
:102B680000F28F80774D95F82330042B03D195F828
:102B78002230002B72D1A38AB4F84440724EC3F5B8
:102B88000162033292B2262A86BFC3F500639BB264
:102B980000231C4424B2338884F30C04A4B29C425E
:102BA80040F2A380E31A9BB2102B40F2A580204686
:102BB8003480FEF777FF654B07461870002F4DD01D
:102BC80095F8493083B9624A6F71116861B195F916
:102BD8000420002ABCBF1A462B7138469742B8BF5A
:102BE8002F71FFF725F8A8605648FFF72DF895F8DC
:102BF800493053B995F8223023B195F83030002B7D
:102C080040F0BD80012385F83830524E96F849309F
:102C180083B94F4A7771116861B196F90420002A87
:102C2800BCBF1A46337138469742B8BF3771FEF7B2
:102C3800FFFFB0604349474800F0E6F896F849308E
:102C480053B996F8223023B196F83030002B40F073
:102C58009A80012386F83830FEF712FBFEF71CFB3A
:102C6800002840F08180BDE8F081A3F6320318B255
:102C780030E7314901200870374903F500630B60DC
:102C880052E7364B2F4D1080591F5A1EFFF782F816
:102C98002846FEF7D9FF95F849305BB995F82230F8
:102CA8002BB195F8303013B1012385F83930012361
:102CB80085F83830274E2349304600F09DF82149E1
:102CC800304600F0A1F896F849305BB996F8223002
:102CD8002BB196F8303013B1012386F8393001232F
:102CE80086F83830FEF7CCFA3DE71B1B9BB2102B59
:102CF8003FF65DAF002BB1D0DFF850802046FEF7DD
:102D0800D1FE98F900309842074646DC3FDB632045
:102D18008742A3D188F8007034804FE7DE04002092
:102D2800DC04002058020020F0010020E00400200C
:102D38003C020020760400206C040020D804002007
:102D4800E404002080040020D6040020D5040020DC
:102D58007004002020040020E8040020A1040020C2
:102D6800A0F632031BB2C9E60F48FEF7A5FABDE884
:102D7800F0410E48FEF7A0BA1080FDF767BD0123A9
:102D880085F839303EE7012386F8393061E7A4F148
:102D9800100080B2FEF786FEBAE704F1100080B298
:102DA800FEF780FEB4E700BF800400202004002066
:102DB8004FF4807C002347F67F710122A0F804C0FD
:102DC8004FF07F0C0360C0E90233C0E90433C0E967
:102DD8000A33C0E90F33836180F81DC0C1830162E3
:102DE80080F8243080F83020A0F83130436302871F
:102DF8004364A0F84830704790F849301BB90B7FFE
:102E080003770B8C0384704790F849305BB910B492
:102E1800D1E904428B69C968C0E90523C0E90314F4
:102E28005DF8044B704770470C2913D8114B01EB20
:102E3800410103EB411191F8583063B1042B10D0D4
:102E4800082B0BD00C2B0FD0102B10D0142B04BF39
:102E5800CB68D8647047CB6858637047CB68D86331
:102E68007047CB6898637047CB6818647047CB6825
:102E780098647047EC0400202DE9F04F4FF4004BA4
:102E8800C0F864B0C0F8E4B14FF4804B594AC0F8B8
:102E9800C4B04FF090414FF480744FF0200B40F6CF
:102EA800FF734FF0000C544EDFF85491DFF854A133
:102EB800C0F824B101254FF0040EC0E900144FF00A
:102EC800060702244FF0100BC0E91732C0E92F3271
:102ED800C0E94732C0E95F320772C0F86CA0C0F899
:102EE800CCA0C0E97731C66080F858C080F818C116
:102EF80080F8D8C180F8284180F8884180F8685067
:102F080080F8C85080F8B8E080F878E1C0F82C91D3
:102F1800C0F88C91C0F884B1C0E9EF32C0F86023E2
:102F2800C0F820248022C0F8C4230A2280F8C823CD
:102F38004022C0F824244FF400624FF40077C0F810
:102F480044220B22C0F8647380F848222B4FC0F843
:102F58006C734FF480624FF00C084FF0804AC0F851
:102F68002C74C0F8A4224FF006070822C0E9A73144
:102F780080F8E851C0F8CC93C0F8ECA180F838C2CA
:102F880080F878C4C0F83C3280F8684380F8B88389
:102F980080F8188480F89882C0F81C3480F8284497
:102FA800C0F87C34C0F84012C0F84C6280F8A872AF
:102FB800C0F8AC6280F8F8224FF40072C0F8FC3216
:102FC800C0F8042380F80873C0F80C63C0F8844480
:102FD80080F88854C0F80013C0F8801480F858E3CB
:102FE800C0F85C33C0F88CA480F8D8E4C0F8DC34AE
:102FF800BDE8F08F00040048002C014000080040A4
:1030080000040040004001402F4B70B51A6E42F496
:1030180000621A661A6E8EB002F400620192019A7A
:103028009A6D42F001029A659A6D02F001020292CD
:10303800029A9A6D42F002029A659A6D02F00202B3
:103048000392039A9A6D42F004029A659A6D02F00F
:1030580004020492049A1A6E42F480321A661B6EB5
:10306800C26D002500F10C0603F48033C0E9062583
:10307800C0E9085504460561456105933046059B3E
:1030880003F0BCFA9FED0A7B8DED067B9FED0A7B72
:103098008DED087B9FED0A7B94F858200C953046FF
:1030A80006A98DED0A7B03F0E7FB0EB070BD00BFEB
:1030B80060000000000000000200000000000000A6
:1030C800000000000001000000100240F0B51548A3
:1030D80087B0FFF7D1FE00F59C670446022500265D
:1030E8006268237A206801920593CDE90365029509
:1030F80000F0CEF8206801A902F0BCFA204660343E
:10310800FFF782FFBC42EBD1074C04F59C6594F8AD
:103118004C102046603403F0F9FAA542F7D107B005
:10312800F0BD00BFEC040020F8040020704700BF89
:1031380070B5424B4FF00065A6B09D60002400F0CA
:1031480027FF3822002106A803F0E8FC2146442284
:1031580015A8CDE90044CDE90244049403F0DEFC4F
:10316800204602F08FFB0223CDE911330D930F9314
:10317800139303230E932A23109301224FF48033D1
:1031880006A8CDE9062302F0FBFB0F220323082142
:10319800CDE90023684600220023CDE902234FF43D
:1031A8000046049402F066FE4FF0005315A82493DD
:1031B800159602F06FFF01F0C5FF214B1E6101F06B
:1031C800E1FF4FF4C043042215A8CDE91A35159242
:1031D80002F0D2F801F0EAFF01F0C8FF052001F083
:1031E80055FC224621466FF00B0001F061FC224697
:1031F80021466FF00A0001F05BFC224621466FF081
:10320800090001F055FC224621466FF0040001F048
:103218004FFC224621466FF0030001F049FC22468C
:1032280021466FF0010001F043FC224621464FF091
:10323800FF3026B0BDE8704001F03ABC00ED00E078
:1032480000200240104B00B51A6E42F001021A66C7
:103258001A6E83B002F001020092009A9A6D42F051
:1032680080529A659B6D03F080530193019B00F097
:10327800CDFE022000F0C0FE044A936843F4804368
:10328800936003B05DF804FB00100240007000403A
:10329800002868D0B0F1904F88B020D0454B9842B4
:1032A8002CD0454B98423BD0444B98425CD0444B81
:1032B800984247D0434B984267D103F1784303F5CE
:1032C800FE33DA6C910608D4DA6C42F02002DA6434
:1032D800DB6C03F020030693069B08B070473A4B5B
:1032E800DA6CD207F9D4DA6C42F00102DA64DB6CEA
:1032F80003F001030193019B08B0704703F1784381
:1033080003F50333DA6C9007E7D4DA6C42F0020273
:10331800DA64DB6C03F002030293029B08B0704787
:1033280003F1784303F50233DA6C5107D5D4DA6C2C
:1033380042F00402DA64DB6C03F004030393039B9A
:1033480008B0704703F1784303F50033DA6CD00610
:10335800C3D4DA6C42F01002DA64DB6C03F01003B9
:103368000593059BB9E7704703F1784303F50133EB
:10337800DA6C1207B1D4DA6C42F00802DA64DB6C5A
:1033880003F008030493049BA7E7104B9842A4D1C9
:1033980003F1F82303F58033DA6C52069DD4DA6C16
:1033A80042F04002DA64DB6C03F040030793079BAA
:1033B80093E700BF0004004800080048000C0048DC
:1033C800001000480014004800100240001800488F
:1033D8002DE9F04F2DED048BB94C83B000F0F4FDCE
:1033E800A379054633B9B74B186003B0BDEC048B1D
:1033F800BDE8F08FB44B1E78002EF6D1DFF8C482FA
:10340800D8F8003040F6B832C31A9342EDD90221F9
:103418003046FEF7EFFE02210120FEF7EBFE0B21FE
:103428000320FEF7E7FE0B210420FEF7E3FE0C2045
:103438004FF48061FEF74EFF642000F0CBFD0021C1
:103448000846FEF7D7FE00210120FEF7D3FE002133
:103458000320FEF7CFFE00210420FEF7CBFE013645
:1034680000210C20FEF736FFF6B2642000F0B2FD12
:10347800052E4FF002014FF000001CD0FEF7BAFEF7
:1034880002210120FEF7B6FE0B210320FEF7B2FE53
:103498000B210420FEF7AEFE4FF480610C20FEF7EE
:1034A80019FF642000F096FD042EC8D14FF4FA707D
:1034B80000F090FDC3E7A379012B00D1FEE732208D
:1034C80000F088FD15F4005F14BF0523002309EE02
:1034D800103A05F48053002B14BF0422072208EE8B
:1034E800902A7A4F019314BF02220A2208EE102A6A
:1034F800002605F47062A378DFF8D4A13D6000923D
:1035080040F6B839B346002B3DD13D60A379002B76
:1035180040F03D81C8F8005094F90330013303D1DD
:103528000136F6B284F803B0731E042B00F27681DC
:10353800DFE813F0D0009A006E000500FE004FF49B
:1035480080610C20FEF7C6FE03200421FEF752FE20
:103558009AF83100022800F05881002800F03E81D6
:10356800012800F0578100210846FEF743FE00219C
:103578000420FEF73FFE94F90730013300F0338151
:10358800A378002BC1D03B68EB1A4B45BED9FEF798
:10359800E3FCA278A379134332D002210020FEF77E
:1035A80029FE02210120FEF725FE0B210320FEF74C
:1035B80021FE0B210420FEF71DFE4FF480610C2034
:1035C800FEF788FE322000F005FD00210846FEF7D0
:1035D80011FE00210120FEF70DFE00210320FEF759
:1035E80009FE00210420FEF705FE00210C20FEF74D
:1035F80071FE322000F0EEFCA279A3781343CCD1FF
:103608000023E371E37003B0BDEC048BBDE8F08FD9
:103618009AF82F00002800F0D98018EE101A002020
:10362800FEF7E8FD05210120FEF7E4FD0021032057
:10363800FEF7E0FD00210420FEF7DCFD00210C2050
:10364800FEF748FE94F90730013399D1322084F807
:1036580007B000F0BFFC9AF82F30B3FA83F35B0988
:103668008AF82F30A3784EE709210320FEF7C2FD20
:103678009AF82E30002B00F0A48002210120FEF7DA
:10368800B9FD00210846FEF7B5FD00210420FEF72C
:10369800B1FD00210C20FEF71DFE94F9073001331F
:1036A8007FF46EAF322084F807B000F093FC9AF8EC
:1036B8002E30B3FA83F35B098AF82E30A37822E719
:1036C8003C020020CC0900206C040020D009002016
:1036D800580200209AF83030002B65D002210120D2
:1036E800FEF788FD009B002B65D000210C20FEF71B
:1036F800F1FD00210846FEF77DFD00210320FEF7BD
:1037080079FD00210420FEF775FD94F90730013397
:103718007FF436AF322084F807B000F05BFC9AF8EB
:103728003030B3FA83F35B098AF83030A378EAE6DD
:103738009AF8353093BB18EE901A0120FEF75AFD1F
:1037480000210846FEF756FD00210320FEF752FD32
:1037580000210420FEF74EFD00210C20FEF7BAFDE3
:1037680094F9073001337FF40BAF322084F807B0A7
:1037780000F030FC9AF835300133DBB2012B8AF8BF
:1037880035307FF6FDAEA3788AF835B0BBE6D8F8B9
:103798000030EB1A4B457FF6BFAEF8E619EE101A6B
:1037A8000120FEF727FDCBE705210120FEF722FDCA
:1037B800019B002B99D14FF480610C20FEF78AFD04
:1037C80097E705210120FEF715FD5AE70A21FEF7C4
:1037D80011FD02210120FEF70DFD27E7052101203B
:1037E800FEF708FDBFE6322084F807B000F0F2FBD0
:1037F8009AF831300133DBB2022B8AF831307FF688
:10380800BFAEA3788AF831B07DE607210120FEF724
:10381800F1FCA8E60421FEF7EDFCA4E60C204FF429
:103828008061FEF757FD9AF8320050B1012831D077
:10383800022833D0032808D102210120FEF7DAFC40
:1038480003E004210120FEF7D5FC00210846FEF71D
:10385800D1FC00210320FEF7CDFC00210420FEF757
:10386800C9FC94F90730013302D0A37800264AE650
:10387800322084F807B000F0ADFB9AF832300133FB
:10388800DBB2032B8AF83230EFD9A3788AF832B04A
:10389800002638E60521FEF7ADFCD6E70721012012
:1038A800FEF7A8FCD1E700BF014B43F82010704792
:1038B800D40900200749084B01F15000002241F8C3
:1038C800042F8142DA801A815A8103F10603F6D166
:1038D800704700BFD4090020280A002010B501282D
:1038E8009CB04DD0022803460C4639D14F4A916D01
:1038F80041F001019165926D02F0010203924FF0CF
:103908008040039A09901C2040B203EB4303484AC5
:10391800B4F800C0217801905B0022F803C013447A
:1039280062885A80A2889A80627801F0C1F801986A
:1039380001F0FCF86088217962790C90002309A8CD
:10394800CDE90E330A910D920B9302F0ADFD0028DC
:1039580042D109A802F030FE002844D11CB010BDA5
:10396800032819D1314A3348916D41F0020191651C
:10397800926D099002F002020492049A1D20C3E796
:103988002A4B1A6E42F400621A661B6E03F4006337
:103998000293029B1CB010BD04280DD1234A26486F
:1039A800916D41F004019165926D099002F0040255
:1039B8000592059A1E20A7E7062818D11B4A1F481A
:1039C800916D41F010019165926D099002F010021D
:1039D8000692069A362097E7FFF7A8FB09A802F097
:1039E800EBFD0028BAD0FFF7A1FB1CB010BD0728DB
:1039F8000DD10E4A1248916D41F020019165926DEA
:103A0800099002F020020792079A37207DE70828DC
:103A1800A4D1064B1A6E42F400521A661B6E03F4C8
:103A280000530893089B1CB010BD00BF0010024053
:103A3800280A002000040040000800400010004050
:103A48000014004008B5114B1A69D00707D5DB6888
:103A5800D90715D40D4A136923F0010313610C4BE0
:103A68001A69D2070BD5DB68DB0703D5094B5B68FE
:103A780003B19847064A136923F00103136108BD8F
:103A8800044B1B6C002BE5D09847E3E7004401404A
:103A9800002C0140D409002008B54FF080431A6972
:103AA800D2070CD5DB68DB0703D5054B9B6803B150
:103AB80098474FF08042136923F00103136108BD52
:103AC800D409002008B5084B1A69D2070BD5DB6862
:103AD800DB0703D5054BDB6803B19847024A136936
:103AE80023F00103136108BD00040040D40900203D
:103AF80008B5084B1A69D2070BD5DB68DB0703D575
:103B0800054B1B6903B19847024A136923F0010367
:103B1800136108BD00080040D409002008B5084B0F
:103B28001A69D2070BD5DB68DB0703D5054B9B6900
:103B380003B19847024A136923F00103136108BDD2
:103B480000100040D409002008B5084B1A69D207B4
:103B58000BD5DB68DB0703D5054BDB6903B1984759
:103B6800024A136923F00103136108BD00140040E1
:103B7800D409002008B5084B1A69D2070BD5DB68B1
:103B8800DB0703D5054B1B6A03B19847024A136943
:103B980023F00103136108BD00340140D40900205B
:103BA80008B5084B1A69D2070BD5DB68DB0703D5C4
:103BB800054BDB6B03B19847024A136923F00103F5
:103BC800136108BD00400140D409002008B5084B26
:103BD8001A69D2070BD5DB68DB0703D5054B5B6C8D
:103BE80003B19847024A136923F00103136108BD22
:103BF80000480140D40900200A480B4903680B4AD1
:103C0800013303600B6801330B6013680849013303
:103C180013600B68074A01330B60136801331360A4
:103C2800704700BFAC0A0020B40A0020B00A002088
:103C3800A80A0020B80A0020084B93F830302BB1AE
:103C480010B5074C23685B2B01D810BD70470021C5
:103C58000C20FEF73FFB0023236010BD5802002014
:103C6800B80A002038B5094B094D93F832302C7842
:103C78001C4300D038BD40F6FF710C20FEF72AFB2C
:103C8800044B01222A701C6038BD00BF5802002076
:103C9800BC0A0020B80A002038B50A4B93F8322035
:103CA80002B138BD93F8304044B9074D2B68252B35
:103CB80004D921460C20FEF70DFB2C60034B002293
:103CC8001A7038BD58020020B80A0020BC0A00202B
:103CD80070B5094B93F83240012C00D070BD074EE7
:103CE8003578002DFAD140F6FF710C20FEF7F2FA74
:103CF800034B34701D6070BD58020020BC0A0020C0
:103D0800B80A002038B50B4B93F83220012A00D0AE
:103D180038BD93F830401CB9074D2B68252B03D8C4
:103D2800064B00221A7038BD21460C20FEF7D2FA45
:103D38002C60F5E758020020B80A0020BC0A0020D1
:103D480038B50A4B93F83230022B00D038BD084DF5
:103D58002C78002CFAD140F6FF710C20FEF7BAFA45
:103D6800044B01222A701C6038BD00BF5802002095
:103D7800BC0A0020B80A002038B50B4B93F8322053
:103D8800022A00D038BD93F830401CB9074D2B6883
:103D9800252B03D8064B00221A7038BD21460C206B
:103DA800FEF798FA2C60F5E758020020B80A0020C0
:103DB800BC0A002038B50A4B93F83230032B00D0E8
:103DC80038BD084D2C78002CFAD140F6FF710C2034
:103DD800FEF780FA044B01222A701C6038BD00BF30
:103DE80058020020BC0A0020B80A002038B50B4B46
:103DF80093F83220032A00D038BD93F830401CB91C
:103E0800074D2B68252B03D8064B00221A7038BDA6
:103E180021460C20FEF75EFA2C60F5E758020020D8
:103E2800B80A0020BC0A0020024610B1012807D0B9
:103E38007047C1F57F6305480F33114600F0EABEAD
:103E48000B4602480022102100F0E4BEC00A002000
:103E580070B51B4C1B4B23608EB00546204600F006
:103E68008DFE3022002102A802F058FE0126002211
:103E780002A92046089600F0E5FE102202A9204675
:103E8800089600F0DFFE0021204600F08DFE10218C
:103E9800204600F089FE8DB101F0BEFF4FF480721C
:103EA800B0400023B0FBF5F569460620ADF80020C8
:103EB800ADF80250ADF80430FFF710FD0EB070BD3C
:103EC800C00A00200008005001460620FFF7ECBC9D
:103ED80000B51B4A016889B000239142CDE902333D
:103EE800CDE90433069302D009B05DF804FB03F171
:103EF800804303F504339FED107BDA6C42F4803283
:103F0800DA64DA6C02F480320092009ADA6C42F0D9
:103F18000102DA64DB6C03F00103019302A94FF09C
:103F280090408DED027B019B01F0A4FB09B05DF888
:103F380004FB00BFAFF30080300000000300000066
:103F48000008005038B50F4B1B680BB9012038BD6D
:103F58000D494FF47A720546B2FBF3F30868B0FBDB
:103F6800F3F000F0F1FD04460028EFD10F2DEDD855
:103F7800024629464FF0FF3000F09AFD034B2046D9
:103F88001D6038BD0000002028000020040000202B
:103F980010B5032000F07AFD0F20FFF7D3FF10B112
:103FA8000124204610BD0446FFF74CF9204610BDF9
:103FB800034A0449136809680B441360704700BF3B
:103FC800D40A002000000020014B1868704700BF89
:103FD800D40A002038B50446FFF7F6FF631C0546EF
:103FE80002D0044B1B681C44FFF7EEFF431BA3429F
:103FF800FAD338BD00000020034A136B23F00203F4
:1040080018431063704700BF00000140024A136B59
:1040180023F00103136370470000014030B583B0FB
:1040280000230193002800F0C780C56D0446002DC9
:1040380000F09080226893689B0005D5936823F070
:10404800204323F03F0393609368DD0017D46F4B40
:1040580091681B686E4821F010419B0921F03F01CF
:10406800A0FB03039B0941F0805191600193019BE0
:104078002BB1019B013B0193019B002BF9D1936864
:10408800D80059D4E36D43F01003E365236E012093
:1040980003432366936813F0040FE36D53D1D906E5
:1040A80051D4E36D23F4817343F00203E36593680D
:1040B800DB070ED4574B4FF0A04189689B680B4330
:1040C800DD0706D4544965688B6823F47C132B43B9
:1040D8008B60E568E36B94F824102B43A5682B43A9
:1040E800657F012943EA453343EA01435FD0E16A2A
:1040F80021B1256B01F4787129430B43D5684749F1
:1041080029400B43D3601369616B23F040630B4371
:1041180013619368590723D593686369012B4ED0BF
:10412800136B23F00F031363E36D23F0030343F0D2
:104138000103E36503B030BD936813F0040F4FF03B
:104148000000E36DABD0E36D012043F01003E3659D
:1041580003B030BDFCF798FA256684F8585069E733
:1041680093681B07D9D4D16894F83830257F21F497
:1041780080415B0021F0020143EA85330B4321694A
:10418800D360136919BB23F480331361D2F8C030AC
:1041980023F47F5323F03F03C2F8C03094F8403033
:1041A800012B21D0136923F001031361B5E7A16A3C
:1041B800013943EA41439AE7012003B030BD116B4E
:1041C800236A21F00F01013B0B431363ACE743F46F
:1041D80080331361D2F8C03023F47F5323F03F03B8
:1041E8000B43C2F8C030D9E71169636CA56C21F4A0
:1041F800FF6121F004012B430B43E16C0B43216D5C
:104208000B4343F00103136187E700BF2800002038
:10421800632D3E0500010050000300500740F0FFE9
:10422800704700BF704700BF08B5806AFFF7FAFF04
:1042380008BD00BF704700BF836ADA6D12F0500FE7
:1042480010B5DA6D1DD1196842F40072DA650A6892
:1042580012F0080FCA681BD012F4406F0DD1CA685B
:1042680094040AD4DA6D22F48072DA65DA6DD10426
:1042780003D4DA6D42F00102DA651846FFF7D0FF81
:1042880010BDD2060AD45B6DBDE810405B6B1847C1
:104298009007E7D51846FFF7C3FFF1E71846FFF781
:1042A800C9FF10BD806A08B5C36D43F04003C365FC
:1042B800036E43F004030366FFF7BCFF08BD00BFAD
:1042C800F0B590F8582083B00346012A4FF000005B
:1042D800019000F034811C68012083F85800A2681E
:1042E800520752D448680A684FEA901E0EF00C0E26
:1042F80004F1300C00F01F005EF80C50C2F3846229
:104308001F26824006FA00F025EA000002434EF814
:104318000C20A268570749D5A2680868A268D60782
:10432800054613D4CF68B34AD4F8B06007F0180C28
:1043380022FA0CF2C0F3120C024026EA0C063243B1
:10434800C4F8B020AC4A974200F0B980AB4A154295
:104358002AD0AB4AAB4990688D4200F0E0761DD078
:10436800A9498D421AD0A9498D4240F01A8110F00E
:10437800807019D1A6498C4216D0916821F0E0715D
:104388000E4346F08076966003E0DA6D42F0200234
:10439800DA65002283F8582003B0F0BD020203D486
:1043A800B4F1A04F00F0DF800020F2E7A26812F01D
:1043B800080240F0828088680E68B0F1004F00F073
:1043C80004814FEAD65C04F114070CF0040CC6F320
:1043D80004565CF807504FF0070EB0400EFA06F688
:1043E80025EA060528434CF80700606920F00040DC
:1043F80060610F69E568042F2FD004F16000C5F3F0
:10440800C10550F827E0DFF818C26E000D680EEA03
:104418000C0C05F0F84545EA0C0C4D69B54045EA29
:104428000C0545F0004540F827500F698E6950F893
:10443800275025F08075354340F827500D7F0E69C9
:10444800012D50F8265008BF4FF0007225F0007576
:104458002A4340F82620086860E70868226E226E22
:10446800C0F31205C2F38462002D40F0DB80C0F374
:104478008465AA4200F03181626E666E04F16002C2
:10448800C6F3846604F16407AE4200F04C81966876
:10449800966802F10807C6F38466AE4200F03181DF
:1044A800D668D66802F10C07C6F3846295427FF499
:1044B80035AF3A6822F000423A6008682EE7BCF14E
:1044C800000F3FD090FAA0F2B2FA82F2013202F065
:1044D8001F02092A00F2D18090FAA0F2B2FA82F201
:1044E80090FAA0F5B5FA85F5013201350126920654
:1044F80005F01F0502F0F84206FA05F5154390FA93
:10450800A0F2B2FA82F2324402F01F0202EB420237
:1045180012052A43D60D886804F1140506F004062E
:10452800C2F3045200FA02F74FF0070C70590CFA64
:1045380002F220EA02023A4372510D6806E70220AD
:1045480003B0F0BD800E013000F01F06092E00F206
:10455800B68085060122B24005F0F845154306EB02
:1045680046021205D5E726492A488A6822F0E072F1
:10457800164346F400068E60026827499209A1FB9B
:104588000212920902EB420292000192019A002A59
:104598003FF40AAF019A013A0192019A002AF9D12F
:1045A80002E71E498D427FF4FFAE10F480007FF4CD
:1045B800FBAE17498C423FF4F7AE916821F0E071E9
:1045C800314341F480019160E3E6F50D04F11400F4
:1045D80005F00405C6F304562F584FF0070C0CFAE3
:1045E80006F627EA06062E50606940F00040606132
:1045F800FFE600BFFFFF070000007F4000000880C3
:1046080000030050000021C31000C090000052C7F2
:104618000001005028000020632D3E05000084CBD7
:1046280000F0FF0390FAA0F5B5FA85F5AA4254D038
:10463800626E666E04F16002C6F3846604F1640774
:1046480090FAA0F5B5FA85F5B5426CD095689668EC
:1046580002F10807C6F3846690FAA0F5B5FA85F565
:10466800B5424ED0D568D56802F10C07C5F384620F
:1046780090FAA0F5B5FA85F518E790FAA0F2B2FA23
:1046880082F290FAA0F5B5FA85F5013201350126D6
:10469800920605F01F0502F0F84206FA05F51543E3
:1046A80090FAA0F0B0FA80F0304400F01F0000EB60
:1046B8004000A0F11E02120542F0007229E706EB45
:1046C800460285061E3A012005F0F845120500FA53
:1046D80006F642F0007235431BE7206E224620F0B2
:1046E800004042F8600F606E0868666EC0F31205FD
:1046F80004F16407C6F38466002DA1D1C0F3846574
:10470800C2E6386820F000403860D068086802F1D6
:104718000C07D268C0F31205C2F38462002DA7D13A
:10472800C0F38465C2E6386820F0004038609068BD
:1047380008689668C0F3120502F10807C6F3846694
:10474800002D89D1C0F38465A7E600BF03689A6885
:10475800D20701D50020704799681A4A114270B5EE
:10476800044608D0E36D43F01003E365236E01208F
:104778000343236670BD9A68134E324042F001022B
:104788009A60FFF721FC054623681A68D20710D4FF
:104798009A68D1070FD49A68324042F001029A60B1
:1047A800FFF712FC401B0228DCD823681A68D207DE
:1047B800EED5002070BDFFF707FC401B0228E3D9A7
:1047C800D0E700BF3F000080C0FFFF7F2DE9F04128
:1047D800374B05689B68AD686C0714D4164690F88B
:1047E8005820012A04460ED003F01F08B8F1090F1B
:1047F8004FF0010380F8583008D9002384F8583066
:104808000120BDE8F0810220BDE8F08140F22123BB
:1048180023FA08F3DB4313F00105EED10F46FFF747
:1048280095FF00283BD1E36D216823F4706323F0E2
:10483800010343F48073E3651E4B994233D0E36D63
:1048480023F48013E365E36D606D1B4D13F480530F
:104858001CBF236E23F006032366C562174D05634C
:10486800174D45631C250D60002584F858504D6888
:1048780045F010054D60CD6845F0010533463A46D0
:10488800CD60403100F05AFB2268936823F0004362
:1048980023F03F0343F004039360BDE8F08184F8FC
:1048A8005850BDE8F081B8F1000FC8D0CBE700BF81
:1048B8000003005000010050414200083142000846
:1048C800AD42000838B503689A68910702D59B681D
:1048D800002038BD9A68D20725D59A6802F00D02E3
:1048E800012A044608D0E36D43F01003E365236E04
:1048F80001200343236638BD9A6822F0004222F063
:104908003F02032142F002029A601960FFF75CFB44
:10491800054604E0FFF758FB401B0228E3D823684C
:104928009B68DB07F6D4002038BD00BF70B590F84F
:10493800582082B00023012A019340D0012380F837
:10494800583004460D46FFF7BDFFF0B9E26D266802
:1049580022F4885222F0020242F00202E265B368B1
:10496800184A23F0404305F0804123F03F030B43EE
:1049780043F00043B360B368002B0FDBE36D23F013
:10498800030343F00103E36503E0E36D43F0100321
:10499800E365002384F8583002B070BD019B0133F1
:1049A8000193019B9342E6D9E36D23F012030022A1
:1049B80043F01003E36584F858200120ECE7022057
:1049C80002B070BD01DE0400F0B490F858200D6804
:1049D800012A4CD002680346B2F1A04F4FF0010003
:1049E80083F8580008D0DA6D002142F0200283F8DD
:1049F8005810F0BCDA6570472248846864070AD505
:104A08009268DA6D42F020020120DA65002283F80C
:104A18005820F0BC704794686607F2D4D5B11A4E96
:104A28004F68B46893F838C024F460443C4344EABF
:104A38004C34B46092688068104310F0010014D1BF
:104A48008A681543B26822F4716222F00F02154396
:104A5800B560DBE70C4CA16821F46041A160926865
:104A68008068104310F0010004D00020CEE7022037
:104A7800F0BC7047A26822F4716222F00F02A260B3
:104A8800C4E700BF00010050000300500749CA688E
:104A980003024FF6FF0003F4E0630240134343F0C0
:104AA800BF6343F40033CB60704700BF00ED00E004
:104AB8001C4BDB68C3F3022300B5C3F1070EBEF13C
:104AC800040F03F1040C28BF4FF0040EBCF1060FCD
:104AD8001BD9033B4FF0FF3C0CFA03FC22EA0C0203
:104AE8004FF0FF3C0CFA0EFC21EA0C01994000281B
:104AF80041EA02010CDB00F16040090100F5614068
:104B0800C9B280F800135DF804FB00221346E7E7FA
:104B1800054B00F00F0009010344C9B219765DF88E
:104B280004FB00BF00ED00E0FCEC00E0002808DB1F
:104B38004109044A00F01F00012303FA00F042F87B
:104B48002100704700E100E00138B0F1807F10D209
:104B580010B44FF0E023084C58614FF0F00C84F883
:104B680023C00022072110469A615DF8044B1961A1
:104B780070470120704700BF00ED00E088B110B514
:104B88000379044603F0FF023BB10023022101220E
:104B9800217123612271184610BD4271FFF798F9FF
:104BA800F3E70120704700BFF8B54379012B2ED0F9
:104BB8000446022622682671012060710D4605F020
:104BC8001007116800FA07F30B431360FFF702FAA6
:104BD80022686DB9136803F03E03B34203D15368EA
:104BE80043F0010353600020012323716071F8BD75
:104BF8001368BE4003F47813B342F4D1536843F00A
:104C0800020353600020012323716071EFE7022043
:104C1800F8BD00BF10B483B0006800240194C46BD1
:104C2800019051B9019908310A440192019A002072
:104C3800136003B05DF8044B7047019914310A44BE
:104C48000192F3E72DE9F04143798F68012B00F0D9
:104C5800D08001234371042F4FF0020305460E460E
:104C68001446037179D0036802F01004F269012A2E
:104C780069D0B169D86B072211F0010F02FA04FC60
:104C880072695ED1890756BFB2FA82F101214909DA
:104C980011433279012A4FF4007241EA070802FAF7
:104CA80004F24FF4807707FA04F742EA0C0220EA8C
:104CB80002026FEA070707EA0207727908BF48F499
:104CC8008078012A326808BF48F40078022A27F45D
:104CD80040477CD0174308FA04F848EA0707DF631F
:104CE8001A684FF48041A14022EA01021A60D6E90D
:104CF8000312186840F6FE76A64020EA06069201DE
:104D080001FA04F03043C1F3830102F470621860C1
:104D18000A4340F60F7101FA04F0C0261968A24050
:104D280006FA04F421EA04041C60196E21EA000161
:104D380000240A4301211A6629716C712046BDE8D6
:104D4800F0810021A4E7996B326A1F20A040A2409D
:104D580021EA00010A439A638BE7BAB9FFF734F9ED
:104D6800074604E0FFF730F9C01B012838D82B6844
:104D78005B6B1B04F6D40120FFF72CF92B68726AD1
:104D88001A640DE0FFF720F9012829D82B685B6B1E
:104D9800002BF7DB0120FFF71DF92B68726A5A64B4
:104DA8009A6CB16AB76804F0100440F2FF30A04072
:104DB800A14022EA00020A439A64DA6CF16AFF20F1
:104DC800A040A14022EA00020A43DA644EE701F05B
:104DD8005BF90D4B98420FD92B6847F400477AE7E7
:104DE8002B69032243F008032B612A711046BDE8A2
:104DF800F0810220BDE8F081044B984288BF47F457
:104E080080472B6867E700BF0068890900B4C404BD
:104E1800002878D070B53D4B04689C425FD93C4A65
:104E28003C4B3D492244A3FB023212099200022363
:104E3800856880F82530C368C669C0E91012016921
:104E48002B430B4341690B4381690B4333435FFA9F
:104E580084FC304E2168ACF1080CA6FB0C6C066A89
:104E680021F4FF4121F0700133430B4323602B4EA3
:104E7800264B2B49CCF3041C9C4298BF31464FF07B
:104E8800010E284CC4640EFA0CF35418B5F5804F83
:104E9800036584644FEA92022AD04568ECB2013D6A
:104EA800032D41F82240C6F8843027D81E4B1F49ED
:104EB8002344013C9B0004F01F040EFA04F4002272
:104EC800C0E91531C4651A60194B5C6400230122DE
:104ED800C36380F8243080F82520184670BD154A31
:104EE8000C4B15492244A3FB0232120992009EE79B
:104EF8000024446041F82240C6F884300023C0E909
:104F08001533C365E2E70120704700BF070402407C
:104F1800F8FBFDBFCDCCCCCC000402400008024019
:104F280020080240800802403F82001040090240E9
:104F380000090240F8FFFDBF00000240F0B490F8FD
:104F48002440012C51D0012480F8244090F82540B9
:104F5800012C05D0002380F82430F0BC02207047D3
:104F6800022480F825400024C4630468C66C2568C0
:104F780025F001052560D0E91475776015B1D0E9F1
:104F880016677760466C076C06F01F0C012606FA58
:104F98000CF67E6063608368102B036B0BBFA26006
:104FA800A160E160E260BBB1236843F00E032360B7
:104FB800836C1A68D20303D51A6842F480721A60A7
:104FC8001DB12B6843F480732B60236843F0010301
:104FD80000202360F0BC7047236823F0040323609B
:104FE800236843F00A032360E2E70220F0BC70471D
:104FF8002DE9F047DFF848819A4698F80030012BF0
:105008004FD0012381460E46174688F80030FEF738
:10501800DBFF4A4D044606E0FEF7D6FFA0EB040C82
:10502800BCF57A7F37D82B69D803F5D42C694CF2B4
:10503800FA331C4046D12B69D90744BF01232B61A1
:105048000023C8F80430B9F1000F2DD009F1FF335F
:10505800012B3FD9FEF7B8FF384E054605E0FEF7AD
:10506800B3FF401BB0F57A7F2AD83369DB03F6D447
:1050780033694CF2FA3213404FD1306910F0010015
:1050880002D001223261184634B12C4A536923EA0E
:105098000404546100E00320002388F80030BDE8D0
:1050A800F0870220BDE8F087244A536943F00103E2
:1050B80053613760BFF36F8F0124C6F804A0C9E7B6
:1050C8000320E1E7D8F804302343C8F8043001206E
:1050D8002C61E1E719494A6942F480223B464A615A
:1050E800EFF3108572B646EA070252071DD13A1D42
:1050F800B2421AD007F58077F61AD3E90001F21800
:105108000833BB42C2E90001F7D185F31088B9F131
:10511800020F08BF4FF480249CE7D8F804201A43F4
:10512800C8F8042001203361AEE7F61B07F5807745
:105138001A689A5104339F42FAD1E6E700200240E8
:1051480008000020064B5A69002A01DB002070473E
:105158000449054A99609A605869C00F704700BFB2
:105168000020024023016745AB89EFCD044B5A6903
:1051780042F000425A615869C043C00F704700BFEF
:1051880000200240064B586910F0804006D00549BF
:10519800054AD960DA605869C0F38070704700BF6B
:1051A800002002403B2A19087F6E5D4C054B5A6966
:1051B80042F080425A61586980F08040C0F38070A4
:1051C800704700BF0020024070B50546FEF7FCFEA0
:1051D800104E044604E0FEF7F7FE031BAB420FD85F
:1051E8003369DB03F7D433694CF2FA32134009D13F
:1051F800306910F0010002D001223261184670BDFA
:10520800032070BD04494A681A434A60012033618B
:1052180070BD00BF00200240080000202DE9F843BF
:10522800534F3B78012B76D0814601244FF47A7096
:1052380088463C70FFF7C8FF064620B100233B7044
:105248003046BDE8F8834B4B78601A6812F4007F4B
:105258001A6864D1520540F189801A6822F4806284
:105268001A6002233B77D9F80030012B64D04FF045
:10527800FF33C8F80030D9E902532B449D4224D2A9
:105288003C4C05E0D9E9023201351344AB421CD944
:105298006269EB0022F4FC7203F4FF631343636159
:1052A800636943F002036361636943F480336361B4
:1052B8004FF47A70FFF788FF636923F4FD73636125
:1052C8000028DFD0C8F8005006463B7F03F0FD02F7
:1052D800012ADBB20CD1274A116841F40061116040
:1052E800116821F400611160116841F400711160C6
:1052F800023B012B0CD81F4B1A6842F480521A60EB
:105308001A6822F480521A601A6842F480621A609D
:1053180000233B7792E702263046BDE8F88322F463
:1053280000721A601A6851051ED51A6822F4806244
:105338001A6003233B7796E7D9F80430DB0704D5D6
:105348000C4A536943F0040353610A4C636943F4FC
:10535800803363614FF47A70FFF736FF636923F097
:10536800040306466361B0E73C777CE738777AE761
:1053780008000020002002402DE9F843B34E33789E
:10538800012B00F05E81012535700368002213EAC5
:1053980005070446726040F0DB809A0700F1CE8072
:1053A8005D0742D419070AD49A0600F1F980DB0692
:1053B80000F1ED80002333703846BDE8F883D4E966
:1053C8000885A845F0D04FF47A70D4F81C90FFF700
:1053D800FBFE002840F00C8119F0010F0FD09C490A
:1053E8009C484A6A08F17848024042EAD8024A6270
:1053F8008B6A05F17845034043EAD5058D62944AE6
:10540800936A09F0004923F0004343EA09039362D1
:10541800536943F4003353614FF47A70FFF7D4FEB5
:1054280023680028C0D00127BEE74FF47A70D4E97A
:105438000558FFF7C9FE002840F0D48015F0010395
:1054480000F00A8108F4E0634FF4B8514FF4E062C9
:10545800A80703D50A4608F480510B43680704D50A
:1054680008F4005142F400520B43E90404D508F44F
:10547800804142F480420B43280704D508F4803168
:1054880042F480320B43E90604D508F4003142F4B3
:1054980000320B43A80604D508F4802142F4802288
:1054A8000B43690604D508F4002142F400220B439B
:1054B800A80504D508F4000142F400020B4369056D
:1054C80004D508F0807142F080720B43280504D59A
:1054D80008F0007142F000720B43A90404D508F0EB
:1054E800806142F080620B43680404D508F00061D3
:1054F80042F000620B43290404D508F0405142F001
:1055080040520B43E80305D508F0804843EA0803F6
:1055180042F080424E4D296A21EA020213432B626F
:105528006B6943F400336B614FF47A70FFF74CFEFC
:10553800236800283FF436AF012733E74FF47A7029
:105548002569FFF741FE002855D02368012727E782
:10555800D0E901874FF47A70D4F80C90FFF734FE45
:1055680000283CD1B8F1000F7AD1394B47EA0947F6
:10557800DF62374A536943F4003353614FF47A705A
:10558800FFF722FE071E236818BF012705E74FF41F
:105598007A70A46AFFF718FE002840D0012709E7AF
:1055A8004FF47A70D4E90B58FFF70EFEE8B9012DD5
:1055B80006D1274A136F23F07F0343EA08031367D2
:1055C800234A536943F4003353614FF47A70FFF769
:1055D800FBFD236800283FF4EAAE0127E7E62368CD
:1055E8002F46DAE623680127DCE623680127DEE692
:1055F80023680127D8E6164A136A23F0FF032B43D2
:105608001362536943F4003353614FF47A70FFF720
:10561800DBFD236800283FF4C3AE0127C0E60C4A2F
:10562800136F23F4803323431367536943F4003320
:105638004FF47A705361FFF7C7FD00283FF4BAAE04
:10564800ACE702273846BDE8F88300BF0800002011
:105658000020024000C0FFFF1A464FF48051F7E6D1
:10566800B8F1010F85D1024B47EA09471F6380E76C
:10567800002002402DE9F04F0D6883B0002D00F0A6
:1056880094800022784E13468C46012101FA03F8D3
:1056980018EA050E00F08280DCF8041021F01009E9
:1056A80009F1FF34012C40F28380D0F80C90DCF82B
:1056B80008404FF0030808FA02F8944029EA08095C
:1056C80044EA0904C4606FEA0804D0F8008008EAD4
:1056D800040801F00304944044EA08040460CC0080
:1056E8005CD5624C2746246E44F001043C663C6E4F
:1056F80004F001040194019C23F0030404F18044A4
:1057080004F5803403F00309D4F808804FEA8909C6
:105718000F2707FA09FAB0F1904F28EA0A0819D0BA
:10572800534FB84200F08B80524FB84200F08D8042
:10573800514FB8427CD0514FB84200F08D80504F45
:10574800B8420CBF4FF0050A4FF0060A0AFA09F9E9
:1057580048EA0908C4F8088034686FEA0E08CF03DD
:1057680054BF08EA04044EEA0404346074688F03E2
:1057780054BF08EA04044EEA04047460B468CF0213
:1057880054BF08EA04044EEA0404B460F4688902C9
:1057980054BF08EA04044EEA0404F460013335FAFD
:1057A80003F102F102027FF470AF03B0BDE8F08F9D
:1057B800D0F808A0DCF80C40DCF808704FF0030BB8
:1057C8000BFA02FB2AEA0B0A944044EA0A048460B2
:1057D800446824EA0808C1F300149C4044EA080419
:1057E8004460C46807FA02F824EA0B0A48EA0A087F
:1057F800B9F1020F6FEA0B04C0F80C807FF465AFB3
:105808004FEAD309DCF8107000EB890903F00708A8
:105818004FEA880807FA08FBD9F820A00F2707FAEB
:1058280008F82AEA08084BEA080BC9F820B04CE740
:105838004FF0030A0AFA09F948EA09088AE7012732
:1058480007FA09F948EA090884E74FF0020A0AFA50
:1058580009F948EA09087DE74FF0040A0AFA09F944
:1058680048EA090876E700BF00040140001002403A
:105878000004004800080048000C004800100048D8
:105888000014004810B43B4A70B9136803F4C063AD
:10589800B3F5806FD2F8803023D023F480735DF89D
:1058A800044BC2F880307047B0F5007F09D0136808
:1058B8005DF8044B23F4C06343F480630020136055
:1058C8007047136803F4C063B3F5806FD2F8803073
:1058D8002FD043F4807300205DF8044BC2F8803069
:1058E800704723F48073C2F880301168224C234833
:1058F80021F4C06141F4007111602368322101FB79
:1059080003F35169A0FB03039B0C480503F1010352
:1059180006D500E023B15169490503F1FF33F9D4F5
:10592800144B5B695C0554BF002003205DF8044BF1
:10593800704743F48073C2F8803011680E4C0F48EA
:1059480021F4C06141F4007111602368322101FB28
:1059580003F35169A0FB03039B0C480503F1010302
:10596800DED501E0002BDBD05169490503F1FF3397
:10597800D6D5F7E7007000402800002083DE1B43DF
:10598800002800F0C3812DE9F0410368D90782B0EF
:1059980004462DD5A6498A68C96802F00C020C2A6B
:1059A80000F00A81082A00F00C816368B3F5803F93
:1059B80000F03381B3F5A02F00F09B819C4D2A683D
:1059C80022F480322A602A6822F480222A60002B7E
:1059D80040F02881FEF7F8FA064605E0FEF7F4FAEB
:1059E800801B642800F242812B689F03F6D4236849
:1059F8009E0728D58E4A9368D26803F00C030C2BB7
:105A080000F0EC80042B00F0EE80E368884D002B5A
:105A180000F01D812B6843F480732B60FEF7D4FAE5
:105A2800064605E0FEF7D0FA801B022800F21E8128
:105A38002B685805F6D56B68226923F0FE4343EAC4
:105A480002636B6023681A0719D56369784D002BC8
:105A580000F09E80D5F8943043F00103C5F89430E7
:105A6800FEF7B2FA064605E0FEF7AEFA801B0228FA
:105A780000F2FC80D5F894309F07F5D523685907C4
:105A880041D56B4B9A6DD20000F1F4809A6D42F0CB
:105A980080529A659B6D03F080530193019B012509
:105AA800644E3368DF0540F11381A368012B00F0D1
:105AB800E380052B00F069815D4ED6F8902022F036
:105AC8000102C6F89020D6F8902022F00402C6F809
